:100000000C9435000C945D000C945D000C945D0024
:100010000C945D000C945D000C945D000C945D00EC
:100020000C945D000C945D000C945D000C945D00DC
:100030000C945D000C945D000C945D000C945D00CC
:100040000C9441020C945D000C940F020C94E90195
:100050000C945D000C945D000C945D000C945D00AC
:100060000C945D000C945D003C0411241FBECFEF86
:10007000D8E0DEBFCDBF11E0A0E0B1E0EAEDFEE0E8
:1000800002C005900D92AC33B107D9F722E0ACE382
:10009000B1E001C01D92A03BB207E1F710E0C5E35B
:1000A000D0E004C02197FE010E946007C433D1074D
:1000B000C9F70E948B020C946B070C940000CF923E
:1000C000DF92EF92FF920F931F93CF93DF936C0118
:1000D0007A018B01C0E0D0E0CE15DF0581F0D801B8
:1000E0006D918D01D601ED91FC910190F081E02D93
:1000F000C6010995892B11F02196EECF7E01C7012B
:10010000DF91CF911F910F91FF90EF90DF90CF90F3
:100110000895089580E090E00895FC01538D448D8A
:10012000252F30E0842F90E0821B930B541710F0A2
:10013000CF96089501970895FC01918D828D9817AF
:1001400061F0828DDF01A80FB11D5D968C91928DBB
:100150009F5F9F73928F90E008958FEF9FEF0895B8
:10016000FC01918D828D981731F0828DE80FF11D81
:10017000858D90E008958FEF9FEF0895FC01918D9C
:10018000228D892F90E0805C9F4F821B91098F7395
:100190009927089583E192E00E94BE0021E0892B17
:1001A00009F420E0822F0895FC01848DDF01A80F5F
:1001B000B11DA35ABF4F2C91848D90E001968F738F
:1001C0009927848FA689B7892C93A089B1898C91AE
:1001D000837080648C93938D848D981306C00288FD
:1001E000F389E02D80818F7D80830895EF92FF92C7
:1001F0000F931F93CF93DF93EC0181E0888F9B8D4A
:100200008C8D981305C0E889F989808185FD26C009
:10021000F62E0B8D10E00F5F1F4F0F731127E02E8E
:100220008C8DE8120CC00FB607FCFACFE889F9896B
:10023000808185FFF5CFCE010E94D400F1CF8B8D58
:10024000FE01E80FF11DE35AFF4FF0829FB7F894CB
:100250000B8FEA89FB89808180620AC09FB7F8947E
:10026000EE89FF896083E889F989808183708064E1
:1002700080839FBF81E090E0DF91CF911F910F912C
:10028000FF90EF900895CF93DF93EC01888D882342
:10029000C9F0EA89FB89808185FD05C0A889B989F3
:1002A0008C9186FD0FC00FB607FCF5CF808185FFCE
:1002B000F2CFA889B9898C9185FFEDCFCE010E943C
:1002C000D400E7CFDF91CF91089580E090E0892BB3
:1002D00029F00E94CA0081110C94000008953FB7D4
:1002E000F8948091410190914201A0914301B09115
:1002F000440126B5A89B05C02F3F19F00196A11D0A
:10030000B11D3FBFBA2FA92F982F8827820F911DAB
:10031000A11DB11DBC01CD0142E0660F771F881FF2
:10032000991F4A95D1F70895009769F0FC01019053
:100330000020E9F73197AF01481B590BBC0183E15D
:1003400092E00C945F0080E090E008958F929F927D
:10035000AF92BF920F931F93CF93DF93CDB7DEB7CA
:10036000A1970FB6F894DEBF0FBECDBF19A24230E1
:1003700008F44AE08E010F5D1F4F842E912CA12CB2
:10038000B12CA50194010E943D05E62FB901CA01D7
:1003900001501109EA3014F4E05D01C0E95CD801B4
:1003A000EC93232B242B252B61F7C8010E94940189
:1003B000A1960FB6F894DEBF0FBECDBFDF91CF91EF
:1003C0001F910F91BF90AF909F908F9008950E94C2
:1003D00066071F920F920FB60F9211242F933F932F
:1003E0004F935F936F937F938F939F93AF93BF933D
:1003F000EF93FF9383E192E00E94D400FF91EF918D
:10040000BF91AF919F918F917F916F915F914F912C
:100410003F912F910F900FBE0F901F9018951F9234
:100420000F920FB60F9211242F938F939F93EF93F8
:10043000FF93E0912302F09124028081E091290250
:10044000F0912A0282FD12C0908180912C028F5F70
:100450008F7320912D02821751F0E0912C02F0E071
:10046000ED5EFD4F958F80932C0201C08081FF913E
:10047000EF919F918F912F910F900FBE0F901F9032
:1004800018951F920F920FB60F9211242F933F933E
:100490008F939F93AF93BF9380913D0190913E01C5
:1004A000A0913F01B091400130913C0123E0230F26
:1004B0002D3720F40196A11DB11D05C026E8230F9C
:1004C0000296A11DB11D20933C0180933D019093A4
:1004D0003E01A0933F01B093400180914101909172
:1004E0004201A0914301B09144010196A11DB11DAB
:1004F0008093410190934201A0934301B093440142
:10050000BF91AF919F918F913F912F910F900FBE0F
:100510000F901F901895789484B5826084BD84B53F
:10052000816084BD85B5826085BD85B5816085BDEE
:1005300080916E00816080936E00109281008091A6
:10054000810082608093810080918100816080932E
:100550008100809180008160809380008091B10053
:1005600084608093B1008091B00081608093B0007E
:1005700080917A00846080937A0080917A00826012
:1005800080937A0080917A00816080937A008091D4
:100590007A00806880937A001092C100E091230273
:1005A000F091240282E08083E0911F02F09120020A
:1005B0001082E0912102F09122028FEC8083109250
:1005C0002B02E0912702F091280286E08083E091DF
:1005D0002502F0912602808180618083E0912502CE
:1005E000F0912602808188608083E0912502F0915D
:1005F0002602808180688083E0912502F0912602A6
:1006000080818F7D8083C1E1D2E098EC892E912C8E
:10061000A12CB12C24E6222E312C10921202109221
:10062000110209E411E078010E94B404A5019401CB
:100630000E940B05F701619371937F01CE17DF07CD
:1006400099F78091110290911202F8012191319154
:100650008F01820F931FCE17DF07B9F79093120215
:1006600080931102B1010E943807072E000C880BFD
:10067000990B0E9411066093450170934601809387
:1006800047019093480186E191E00E949401C09057
:100690001102D09012020D2C000CEE08FF08F7FE9C
:1006A0000EC06DE283E192E00E94F6006627772794
:1006B000CB016C197D098E099F094AE003C04AE00D
:1006C000C701B6010E94A6018EE191E00E9494014B
:1006D000C0904501D0904601E0904701F09048015C
:1006E000A7019601C701B6010E943307882319F0BC
:1006F0008CE291E01AC026013701E89477F82FEFD9
:100700003FEF4FE75FE7C301B2010E94330781115A
:100710000FC02FEF3FEF4FE75FE7C301B2010E9429
:10072000DB0518162CF480E391E00E94940176C05A
:100730002FEF3FEF4FE75FE4C701B6010E94C1060C
:1007400018161CF484E391E0F0CF2FEF3FEF4FE752
:100750005FECC701B6010E94DB0587FDF3CF20E007
:1007600030E0A901C701B6010E94DB0587FF09C07F
:100770006DE283E192E00E94F600F7FAF094F7F858
:10078000F0942AE037ED43EA5BE3C701B6010E942B
:100790006F052B013C010E94E0056B017C010E946A
:1007A0000F069B01AC01C301B2010E946E052B0133
:1007B0003C014AE0C701B6010E94A6016EE283E156
:1007C00092E00E94F60020E030E040E251E4C301F4
:1007D000B2010E94C6062B013C010E94E0056B019C
:1007E000E12CF12C4AE0C701B6010E94A601C70125
:1007F000B6010E940F069B01AC01C301B2010E9429
:100800006E0520E030E040E251E40E94C6060E94FE
:10081000E00580E090E04AE00E94A60188E391E0D4
:100820000E9494010E946F012B013C0188EEC82EAA
:1008300083E0D82EE12CF12C0E946F01DC01CB016A
:1008400084199509A609B709883E9340A105B10509
:1008500098F3F1E0CF1AD108E108F10828EE420E32
:1008600023E0521E611C711CC114D104E104F10487
:1008700019F70E946501D1CEE3E1F2E01382128202
:1008800088EE93E0A0E0B0E084839583A683B783ED
:1008900088E091E09183808385EC90E09587848760
:1008A00084EC90E09787868780EC90E0918B808B3A
:1008B00081EC90E0938B828B82EC90E0958B848B23
:1008C00086EC90E0978B868B118E128E138E148E91
:1008D00008958F929F92AF92BF92CF92DF92EF9244
:1008E000FF92CF93DF93EC01688179818A819B81AC
:1008F000611571058105910521F464E279ED8BE5BF
:1009000097E02DE133EF41E050E00E940B054901F3
:100910005A019B01AC01A7EAB1E40E942A056B01D0
:100920007C01ACEEB4EFA50194010E943805DC0116
:10093000CB018C0D9D1DAE1DBF1DB7FF03C00197E0
:10094000A109B04888839983AA83BB83BC01CD01E8
:100950009F77DF91CF91FF90EF90DF90CF90BF9086
:10096000AF909F908F9008958F929F92AF92BF9279
:10097000CF92DF92EF92FF9260910001709101019E
:100980008091020190910301611571058105910526
:1009900021F464E279ED8BE597E02DE133EF41E05E
:1009A00050E00E940B0549015A019B01AC01A7EAE6
:1009B000B1E40E942A056B017C01ACEEB4EFA50105
:1009C00094010E943805DC01CB018C0D9D1DAE1DEC
:1009D000BF1DB7FF03C00197A109B0488093000174
:1009E00090930101A0930201B0930301BC01CD01DA
:1009F0009F77FF90EF90DF90CF90BF90AF909F9048
:100A00008F9008956093000170930101809302011B
:100A1000909303010895052E97FB1EF400940E9405
:100A2000220557FD07D00E943D0507FC03D04EF478
:100A30000C94220550954095309521953F4F4F4F8E
:100A40005F4F089590958095709561957F4F8F4F7A
:100A50009F4F08950E945F05A59F900DB49F900D34
:100A6000A49F800D911D11240895B7FF0C942A05B1
:100A70000E942A05821B930B0895A1E21A2EAA1B3D
:100A8000BB1BFD010DC0AA1FBB1FEE1FFF1FA2173E
:100A9000B307E407F50720F0A21BB30BE40BF50B3B
:100AA000661F771F881F991F1A9469F760957095C4
:100AB000809590959B01AC01BD01CF010895A29F47
:100AC000B001B39FC001A39F700D811D1124911D22
:100AD000B29F700D811D1124911D08955058BB27A0
:100AE000AA270E9486050C9487060E94790638F092
:100AF0000E94800620F039F49F3F19F426F40C94EC
:100B000076060EF4E095E7FB0C947006E92F0E9440
:100B1000980658F3BA17620773078407950720F001
:100B200079F4A6F50C94BA060EF4E0950B2EBA2FC4
:100B3000A02D0B01B90190010C01CA01A0011124E3
:100B4000FF27591B99F0593F50F4503E68F11A168F
:100B5000F040A22F232F342F4427585FF3CF469520
:100B600037952795A795F0405395C9F77EF41F1642
:100B7000BA0B620B730B840BBAF09150A1F0FF0F0C
:100B8000BB1F661F771F881FC2F70EC0BA0F621FF8
:100B9000731F841F48F4879577956795B795F795E8
:100BA0009E3F08F0B0CF9395880F08F09927EE0F7D
:100BB0009795879508950E944C0608F481E0089562
:100BC0000E94A00688F09F5798F0B92F9927B75137
:100BD000B0F0E1F0660F771F881F991F1AF0BA95E1
:100BE000C9F714C0B13091F00E94BA06B1E008957F
:100BF0000C94BA06672F782F8827B85F39F0B93F71
:100C0000CCF3869577956795B395D9F73EF4909593
:100C10008095709561957F4F8F4F9F4F0895E89411
:100C200009C097FB3EF490958095709561957F4F34
:100C30008F4F9F4F9923A9F0F92F96E9BB279395E2
:100C4000F695879577956795B795F111F8CFFAF4F2
:100C5000BB0F11F460FF1BC06F5F7F4F8F4F9F4F23
:100C600016C0882311F096E911C0772321F09EE881
:100C7000872F762F05C0662371F096E8862F70E0E7
:100C800060E02AF09A95660F771F881FDAF7880FC1
:100C90009695879597F90895990F0008550FAA0B17
:100CA000E0E8FEEF16161706E807F907C0F012167F
:100CB0001306E407F50798F0621B730B840B950B82
:100CC00039F40A2661F0232B242B252B21F40895D7
:100CD0000A2609F4A140A6958FEF811D811D089574
:100CE00097F99F6780E870E060E008959FEF80ECDF
:100CF000089500240A941616170618060906089582
:100D000000240A9412161306140605060895092EE7
:100D10000394000C11F4882352F0BB0F40F4BF2B56
:100D200011F460FF04C06F5F7F4F8F4F9F4F089596
:100D300057FD9058440F551F59F05F3F71F047958C
:100D4000880F97FB991F61F09F3F79F08795089571
:100D5000121613061406551FF2CF4695F1DF08C090
:100D6000161617061806991FF1CF869571056105AD
:100D700008940895E894BB2766277727CB0197F955
:100D800008950E944C0608F48FEF08950E94D9063A
:100D90000C9487060E94790638F00E94800620F0A5
:100DA000952311F00C9470060C94760611240C9483
:100DB000BB060E94980670F3959FC1F3950F50E013
:100DC000551F629FF001729FBB27F00DB11D639FFD
:100DD000AA27F00DB11DAA1F649F6627B00DA11DA3
:100DE000661F829F2227B00DA11D621F739FB00D49
:100DF000A11D621F839FA00D611D221F749F3327B9
:100E0000A00D611D231F849F600D211D822F762F51
:100E10006A2F11249F5750409AF0F1F088234AF02E
:100E2000EE0FFF1FBB1F661F771F881F915050409A
:100E3000A9F79E3F510580F00C9470060C94BB06F8
:100E40005F3FE4F3983ED4F3869577956795B79521
:100E5000F795E7959F5FC1F7FE2B880F911D96953B
:100E6000879597F908950E944C06880B990B089571
:100E700097FB072E16F4009407D077FD09D00E9447
:100E80004C0707FC05D03EF4909581959F4F08953F
:100E9000709561957F4F0895AA1BBB1B51E107C058
:100EA000AA1FBB1FA617B70710F0A61BB70B881FFA
:100EB000991F5A95A9F780959095BC01CD01089589
:100EC000EE0FFF1F0590F491E02D099481E090E072
:0A0ED000F8940C946B07F894FFCF20
:100EDA000100000000000000F6005F008D004301E1
:100EEA00BE009C00B0002053756D203D2000202CD0
:100EFA002041766572616765203D20006E616E0053
:0C0F0A00696E66006F7666000D0A00003C
:00000001FF
