:020000020000FC
:100000000E9419000E9457000E9443000E94630052
:100010000E9443000E9472000E9443000E947C00E4
:100020000E9443000E9485000E9457000E944300E6
:10003000E9CF0FEF0AB90FE307B903E004B9089558
:100040000BB910E018B915B908951FEF1BB9202F8F
:100050002095322F26952695A3E03A2328B935B965
:100060000895212F2095322F26952695A3E03A2337
:100070000BB928B935B908959FEFAEE39A95F1F71A
:10008000AA95E1F7089569E276E98EE78A95F1F796
:100090007A95E1F76A95D1F708950FEF102F0E9436
:1000A0003100089500E0102F0E9431000895F2E021
:1000B0000E944D000E9443000E9452000E94430093
:1000C000FA95B1F7089511E090E001E040E00E9458
:1000D00031000E944300000F0030C9F7110F1030AB
:1000E000A1F7089501E040E00E9420000E94430033
:1000F000000F0030C9F7089501E00E9425000E941A
:100100004300000F0030C9F70895FDE7E4E00E94C6
:100110008E00FA95E1F7EA95D1F7089508E40E9478
:1001200020000E943C0004E40E9425000E943C0044
:1001300002E010E10E9431000E943C0002E410E95C
:0E0140000E9431000E943C0000E010E0089593
:00000001FF
