:100000000C9435000C945D000C945D000C945D0024
:100010000C945D000C945D000C945D000C945D00EC
:100020000C945D000C945D000C945D000C945D00DC
:100030000C945D000C945D000C945D000C945D00CC
:100040000C9483010C945D000C94F3010C94CD018D
:100050000C945D000C945D000C945D000C945D00AC
:100060000C945D000C945D00040311241FBECFEFBF
:10007000D8E0DEBFCDBF11E0A0E0B1E0EEEEF9E0E8
:1000800002C005900D92AA32B107D9F721E0AAE289
:10009000B1E001C01D92A03DB207E1F710E0C5E359
:1000A000D0E004C02197FE010E94EA04C433D107C6
:1000B000C9F70E9425020C94F5040C940000CF921D
:1000C000DF92EF92FF920F931F93CF93DF936C0118
:1000D0007A018B01C0E0D0E0CE15DF0581F0D801B8
:1000E0006D918D01D601ED91FC910190F081E02D93
:1000F000C6010995892B11F02196EECF7E01C7012B
:10010000DF91CF911F910F91FF90EF90DF90CF90F3
:100110000895089580E090E00895FC01538D448D8A
:10012000252F30E0842F90E0821B930B541710F0A2
:10013000CF96089501970895FC01918D828D9817AF
:1001400061F0828DDF01A80FB11D5D968C91928DBB
:100150009F5F9F73928F90E008958FEF9FEF0895B8
:10016000FC01918D828D981731F0828DE80FF11D81
:10017000858D90E008958FEF9FEF0895FC01918D9C
:10018000228D892F90E0805C9F4F821B91098F7395
:100190009927089583E391E00E94BE0021E0892B16
:1001A00009F420E0822F0895FC01848DDF01A80F5F
:1001B000B11DA35ABF4F2C91848D90E001968F738F
:1001C0009927848FA689B7892C93A089B1898C91AE
:1001D000837080648C93938D848D981306C00288FD
:1001E000F389E02D80818F7D80830895EF92FF92C7
:1001F0000F931F93CF93DF93EC0181E0888F9B8D4A
:100200008C8D981305C0E889F989808185FD26C009
:10021000F62E0B8D10E00F5F1F4F0F731127E02E8E
:100220008C8DE8120CC00FB607FCFACFE889F9896B
:10023000808185FFF5CFCE010E94D400F1CF8B8D58
:10024000FE01E80FF11DE35AFF4FF0829FB7F894CB
:100250000B8FEA89FB89808180620AC09FB7F8947E
:10026000EE89FF896083E889F989808183708064E1
:1002700080839FBF81E090E0DF91CF911F910F912C
:10028000FF90EF900895CF93DF93EC01888D882342
:10029000C9F0EA89FB89808185FD05C0A889B989F3
:1002A0008C9186FD0FC00FB607FCF5CF808185FFCE
:1002B000F2CFA889B9898C9185FFEDCFCE010E943C
:1002C000D400E7CFDF91CF91089580E090E0892BB3
:1002D00029F00E94CA0081110C9400000895009733
:1002E00069F0FC0101900020E9F73197AF01481B4C
:1002F000590BBC0183E391E00C945F0080E090E037
:1003000008950E94F0041F920F920FB60F921124CD
:100310002F933F938F939F93AF93BF9380912F0120
:1003200090913001A0913101B091320130912E01B4
:1003300023E0230F2D3720F40196A11DB11D05C028
:1003400026E8230F0296A11DB11D20932E01809354
:100350002F0190933001A0933101B093320180912D
:100360002A0190912B01A0912C01B0912D010196B1
:10037000A11DB11D80932A0190932B01A0932C0104
:10038000B0932D01BF91AF919F918F913F912F918C
:100390000F900FBE0F901F9018951F920F920FB6DF
:1003A0000F9211242F933F934F935F936F937F93FB
:1003B0008F939F93AF93BF93EF93FF9383E391E06A
:1003C0000E94D400FF91EF91BF91AF919F918F91C7
:1003D0007F916F915F914F913F912F910F900FBE41
:1003E0000F901F9018951F920F920FB60F92112425
:1003F0002F938F939F93EF93FF93E0914301F0919D
:1004000044018081E0914901F0914A0182FD12C0CE
:10041000908180914C018F5F8F7320914D018217E5
:1004200051F0E0914C01F0E0ED5CFE4F958F809330
:100430004C0101C08081FF91EF919F918F912F918D
:100440000F900FBE0F901F901895CF93DF93CDB7ED
:10045000DEB7A1970FB6F894DEBF0FBECDBF78947C
:1004600084B5826084BD84B5816084BD85B58260B9
:1004700085BD85B5816085BD80916E00816080936A
:100480006E001092810080918100826080938100D3
:1004900080918100816080938100809180008160E3
:1004A000809380008091B10084608093B10080913E
:1004B000B00081608093B00080917A008460809366
:1004C0007A0080917A00826080937A0080917A002D
:1004D000816080937A0080917A00806880937A00AE
:1004E0001092C100E0914301F091440182E08083C9
:1004F000E0913F01F09140011082E0914101F091C3
:1005000042018FEC808310924B01E0914701F09102
:10051000480186E08083E0914501F09146018081A9
:1005200080618083E0914501F0914601808188607F
:100530008083E0914501F09146018081806880834D
:10054000E0914501F091460180818F7D808382E1B9
:1005500091E00E946F0119A285E388A386E38F8F43
:1005600082E38E8FCE014E960E946F016EE283E38E
:1005700091E00E94F60085E0F82E60E078E085E4E6
:100580009FE32AE0222E312C412C512CFA94FF209B
:10059000A1F120E030E040E251E40E945B044B0115
:1005A0005C010E949E039B0140E050E019A28E0175
:1005B0000F5D1F4F762EC32ED42EE52ECA01B90132
:1005C000A20191010E94C804605DF80162938F014D
:1005D000211531054105510589F7CF010E946F01B1
:1005E000672D7C2D8D2D9E2D0E94CD039B01AC018E
:1005F000C501B4010E943103C9CF86E291E00E9497
:100600006F010E946501FDCFE3E3F1E013821282E6
:1006100088EE93E0A0E0B0E084839583A683B7835F
:1006200084E091E09183808385EC90E095878487D6
:1006300084EC90E09787868780EC90E0918B808BAC
:1006400081EC90E0938B828B82EC90E0958B848B95
:1006500086EC90E0978B868B118E128E138E148E03
:1006600008955058BB27AA270E9449030C942104DF
:100670000E94130438F00E941A0420F039F49F3FBE
:1006800019F426F40C9410040EF4E095E7FB0C9496
:100690000A04E92F0E94320458F3BA17620773075D
:1006A0008407950720F079F4A6F50C9454040EF411
:1006B000E0950B2EBA2FA02D0B01B90190010C0172
:1006C000CA01A0011124FF27591B99F0593F50F48A
:1006D000503E68F11A16F040A22F232F342F4427E2
:1006E000585FF3CF469537952795A795F0405395DA
:1006F000C9F77EF41F16BA0B620B730B840BBAF0AA
:100700009150A1F0FF0FBB1F661F771F881FC2F714
:100710000EC0BA0F621F731F841F48F48795779528
:100720006795B795F7959E3F08F0B0CF9395880FE2
:1007300008F09927EE0F9795879508950E943A043F
:1007400088F09F5798F0B92F9927B751B0F0E1F092
:10075000660F771F881F991F1AF0BA95C9F714C042
:10076000B13091F00E945404B1E008950C94540407
:10077000672F782F8827B85F39F0B93FCCF386957B
:1007800077956795B395D9F73EF4909580957095D8
:1007900061957F4F8F4F9F4F0895E89409C097FB55
:1007A0003EF490958095709561957F4F8F4F9F4F48
:1007B0009923A9F0F92F96E9BB279395F69587958C
:1007C00077956795B795F111F8CFFAF4BB0F11F44F
:1007D00060FF1BC06F5F7F4F8F4F9F4F16C08823F6
:1007E00011F096E911C0772321F09EE8872F762F2C
:1007F00005C0662371F096E8862F70E060E02AF06D
:100800009A95660F771F881FDAF7880F9695879558
:1008100097F9089597F99F6780E870E060E0089580
:100820009FEF80EC089500240A9416161706180608
:100830000906089500240A941216130614060506E4
:100840000895092E0394000C11F4882352F0BB0F75
:1008500040F4BF2B11F460FF04C06F5F7F4F8F4FD8
:100860009F4F089557FD9058440F551F59F05F3F13
:1008700071F04795880F97FB991F61F09F3F79F0C2
:1008800087950895121613061406551FF2CF469544
:10089000F1DF08C0161617061806991FF1CF8695C6
:1008A0007105610508940895E894BB2766277727AA
:1008B000CB0197F908950E946E040C9421040E94C4
:1008C000130438F00E941A0420F0952311F00C94C0
:1008D0000A040C94100411240C9455040E94320450
:1008E00070F3959FC1F3950F50E0551F629FF00183
:1008F000729FBB27F00DB11D639FAA27F00DB11D9C
:10090000AA1F649F6627B00DA11D661F829F222724
:10091000B00DA11D621F739FB00DA11D621F839FAB
:10092000A00D611D221F749F3327A00D611D231F81
:10093000849F600D211D822F762F6A2F11249F57CF
:1009400050409AF0F1F088234AF0EE0FFF1FBB1FD2
:10095000661F771F881F91505040A9F79E3F510591
:1009600080F00C940A040C9455045F3FE4F3983E25
:10097000D4F3869577956795B795F795E7959F5F3B
:10098000C1F7FE2B880F911D9695879597F90895CD
:10099000A1E21A2EAA1BBB1BFD010DC0AA1FBB1F83
:1009A000EE1FFF1FA217B307E407F50720F0A21BF5
:1009B000B30BE40BF50B661F771F881F991F1A9462
:1009C00069F760957095809590959B01AC01BD018C
:1009D000CF010895EE0FFF1F0590F491E02D0994CB
:0E09E00081E090E0F8940C94F504F894FFCFB9
:1009EE0000000000F6005F008D004301BE009C0079
:1009FE00B00041726561206F6620636972636C6539
:0A0A0E002069733A20000D0A000071
:107E0000112484B714BE81FFFDD085E080938100EA
:107E100082E08093C00088E18093C10096E0909357
:107E2000C20090E19093C400809360008EE0809344
:107E30006000259A86E020E33CEF91E030938500D6
:107E40002093840096BBB09BFECF1D9AA8958150CD
:107E5000A9F7C0E0D0E008E138E0F32EEE24E39487
:107E600045E0B42E51E1A52E13E0A7D0813491F462
:107E7000A4D0D82EAED082E8D81203C084E096D029
:107E800092C0E1E8DE1203C084E090D08CC083E0B1
:107E90008DD089C0823419F484E1A7D084C08534A0
:107EA00019F485E0A2D07FC0853549F486D0C82F6B
:107EB00084D0D0E0D82BCC0FDD1F8BD074C086359A
:107EC00029F484E092D080E071D06DC0843609F04E
:107ED0003FC073D072D0982E70D0C115F0E7DF0785
:107EE00038F4FE0117BFE895C12CDD24D39403C0FC
:107EF000C12CDD24D39461D0F60181936F019E12D1
:107F0000FACFC115F0E7DF0718F0FE0117BFE895BB
:107F100060D007B600FCFDCFFE01A0E0B1E08C917F
:107F200011962C91119790E0922B0C01E7BEE895E9
:107F3000112432961296A03881E0B80781F7FE012D
:107F4000B7BEE89507B600FCFDCFA7BEE8952BC0ED
:107F50008437B1F432D031D0982E2FD03AD0892C3A
:107F6000FE016F018FEFC81AD80A84911FD08A943E
:107F7000F6018110F6CF21969A94C90DD11D13C038
:107F8000853741F426D08EE111D085E90FD08FE0FE
:107F90000DD009C0813531F400936000F09260008B
:107FA00018D001C016D080E101D05FCF9091C00001
:107FB00095FFFCCF8093C60008958091C00087FF95
:107FC000FCCF8091C00084FD01C0A8958091C600BF
:107FD0000895F3DF803239F088E18093600088E013
:107FE00080936000FFCF84E1E1CFCF93C82FE5DF1E
:107FF000C150E9F7CF91EDCFE0E6F0E098E1908352
:1080000080830895E0E6F0E088E180831082EE2727
:04801000FF270994A9
:027FFE00040479
:0400000300007E007B
:00000001FF
