:100000000C9444000C946C000C946C000C946C00E8
:100010000C946C000C946C000C946C000C946C00B0
:100020000C946C000C946C000C946C000C946C00A0
:100030000C946C000C946C000C946C000C946C0090
:100040000C9425030C946C000C94F3020C94CD02D8
:100050000C946C000C946C000C946C000C946C0070
:100060000C946C000C946C0005A84CCDB2D44EB925
:100070003836A9020C50B9918688083CA6AAAA2A4B
:10008000BE000000803F8F0411241FBECFEFD8E0D8
:10009000DEBFCDBF11E0A0E0B1E0E4E6FFE002C0CA
:1000A00005900D92A432B107D9F721E0A4E2B1E0A6
:1000B00001C01D92AA3CB207E1F710E0C4E4D0E011
:1000C00004C02197FE010E94AA07C334D107C9F7D3
:1000D0000E946F030C94B0070C940000AF92BF9283
:1000E000CF92DF92EF92FF920F931F93CF93DF9304
:1000F0006C017B018B01040F151FEB015E01AE1833
:10010000BF08C017D10759F06991D601ED91FC9154
:100110000190F081E02DC6010995892B79F7C50181
:10012000DF91CF911F910F91FF90EF90DF90CF90D3
:10013000BF90AF900895FC01538D448D252F30E082
:10014000842F90E0821B930B541710F0CF960895E4
:1001500001970895FC01918D828D981761F0A28D11
:10016000AE0FBF2FB11D5D968C91928D9F5F9F73D7
:10017000928F90E008958FEF9FEF0895FC01918D8D
:10018000828D981731F0828DE80FF11D858D90E0FA
:1001900008958FEF9FEF0895FC01918D228D892F97
:1001A00090E0805C9F4F821B91098F73992708957F
:1001B0008DE291E00E94CC0021E0892B09F420E03F
:1001C000822F089580E090E0892B29F00E94D800CA
:1001D00081110C9400000895FC01A48DA80FB92F83
:1001E000B11DA35ABF4F2C91848D90E001968F735F
:1001F0009927848FA689B7892C93A089B1898C917E
:10020000837080648C93938D848D981306C00288CC
:10021000F389E02D80818F7D80830895EF92FF9296
:100220000F931F93CF93DF93EC0181E0888F9B8D19
:100230008C8D98131AC0E889F989808185FF15C0D3
:100240009FB7F894EE89FF896083E889F9898081F6
:100250008370806480839FBF81E090E0DF91CF91C5
:100260001F910F91FF90EF900895F62E0B8D10E0E7
:100270000F5F1F4F0F731127E02E8C8D8E110CC056
:100280000FB607FCFACFE889F989808185FFF5CFA1
:10029000CE010E94EC00F1CFEB8DEC0FFD2FF11D94
:1002A000E35AFF4FF0829FB7F8940B8FEA89FB89DE
:1002B00080818062CFCFCF93DF93EC01888D88233C
:1002C000B9F0AA89BB89E889F9898C9185FD03C0B9
:1002D000808186FD0DC00FB607FCF7CF8C9185FF9E
:1002E000F2CF808185FFEDCFCE010E94EC00E9CFF7
:1002F000DF91CF9108953FB7F894809129019091B3
:100300002A01A0912B01B0912C0126B5A89B05C014
:100310002F3F19F00196A11DB11D3FBFBA2FA92F84
:10032000982F8827BC01CD01620F711D811D911D81
:1003300042E0660F771F881F991F4A95D1F70895ED
:10034000FC0101900020E9F73197AF01481B590BE0
:10035000BC018DE291E00C946E008F929F92AF925F
:10036000BF920F931F93CF93DF93CDB7DEB7A197C3
:100370000FB6F894DEBF0FBECDBF19A2423008F40D
:100380004AE08E010F5D1F4F842E912CB12CA12CC1
:10039000A50194010E948807E62FB901CA01EA303D
:1003A000F4F4E05DD801EE938D01232B242B252B53
:1003B00079F790E080E0109719F0CD010E94A0013C
:1003C000A1960FB6F894DEBF0FBECDBFDF91CF91DF
:1003D0001F910F91BF90AF909F908F900895E95C0F
:1003E000E1CF4F925F926F927F928F929F92AF92E6
:1003F000BF92CF92DF92EF92FF920F931F93CF9312
:100400006B017C01742EAC019B010E94FB068823CA
:1004100099F082E191E0CF911F910F91FF90EF90C1
:10042000DF90CF90BF90AF909F908F907F906F9014
:100430005F904F900C94A00146015701E894B7F8E3
:100440002FEF3FEF4FE75FE7C501B4010E94FB06C6
:1004500081110DC02FEF3FEF4FE75FE7C501B401FA
:100460000E94290518161CF486E191E0D4CF2FEFE5
:100470003FEF4FE75FE4C701B6010E9481061816FF
:100480001CF48AE191E0C7CF2FEF3FEF4FE75FEC1D
:10049000C701B6010E94290587FDF3CF20E030E0B7
:1004A000A901C701B6010E94290510E000E087FFFD
:1004B0000AC06DE28DE291E00E940E018C01F7FA14
:1004C000F094F7F8F094C0E060E070E080E09FE323
:1004D0007C1641F020E030E040E251E40E942E051D
:1004E000CF5FF6CFA70196010E94BD042B013C010E
:1004F0000E94A0054B015C014AE00E94AD017C0115
:10050000E00EF11ECC23C1F1C501B4010E94CF055C
:100510009B01AC01C301B2010E94BC044B015C0110
:100520006EE28DE291E00E940E01E80EF91EC150CC
:1005300018F120E030E040E251E4C501B4010E942E
:1005400086062B013C010E94A0054B01B12CA12C79
:100550004AE0C501B4010E94AD01E80EF91EC501D3
:10056000B4010E94CF059B01AC01C301B2010E94FE
:10057000BC044B015C01DBCFC701CF911F910F91F0
:10058000FF90EF90DF90CF90BF90AF909F908F90B3
:100590007F906F905F904F9008951F920F920FB6CB
:1005A0000F9211242F933F934F935F936F937F93F9
:1005B0008F939F93AF93BF93EF93FF938DE291E05F
:1005C0000E94EC00FF91EF91BF91AF919F918F91AD
:1005D0007F916F915F914F913F912F910F900FBE3F
:1005E0000F901F9018951F920F920FB60F92112423
:1005F0002F938F939F93EF93FF93E0913D01F091A1
:100600003E018081E0914301F091440182FD1BC0D5
:100610009081809146018F5F8F73209147018217EF
:1006200041F0E0914601F0E0E35DFE4F958F80934D
:100630004601FF91EF919F918F912F910F900FBEE7
:100640000F901F9018958081F4CF1F920F920FB6D4
:100650000F9211242F933F938F939F93AF93BF9348
:100660008091250190912601A0912701B091280148
:100670003091240123E0230F2D3758F50196A11D59
:10068000B11D209324018093250190932601A0930E
:100690002701B09328018091290190912A01A0910E
:1006A0002B01B0912C010196A11DB11D8093290150
:1006B00090932A01A0932B01B0932C01BF91AF918D
:1006C0009F918F913F912F910F900FBE0F901F9090
:1006D000189526E8230F0296A11DB11DD2CF78945C
:1006E00084B5826084BD84B5816084BD85B5826037
:1006F00085BD85B5816085BD80916E0081608093E8
:100700006E00109281008091810082608093810050
:100710008091810081608093810080918000816060
:10072000809380008091B10084608093B1008091BB
:10073000B00081608093B00080917A0084608093E3
:100740007A0080917A00826080937A0080917A00AA
:10075000816080937A0080917A00806880937A002B
:100760001092C100E0913D01F0913E0182E0808352
:10077000E0913901F0913A011082E0913B01F09152
:100780003C018FEC808310924501E0914101F09192
:10079000420186E08083E0913F01F0914001808139
:1007A00080618083E0913F01F09140018081886009
:1007B0008083E0913F01F0914001808180688083D7
:1007C000E0913F01F091400180818F7D808300E0C6
:1007D00010E0D0E0C0E0BE010D2E000C880B990B9C
:1007E0000E94D1052BED3FE049E450E40E948606CB
:1007F00020E030E044E353E40E942E050E94F3061B
:100800002B013C01BE01665A7F4F072E000C880B5E
:10081000990B0E94D1052BED3FE049E450E40E9482
:10082000860620E030E044E353E40E942E050E9457
:10083000F3066B017C01BE016C547F4F072E000C48
:10084000880B990B0E94D1052BED3FE049E450E461
:100850000E94860620E030E044E353E40E942E0527
:100860000E94F3064B015C0142E0C301B2010E9409
:10087000F1018EE191E00E94A001A7019601C7015C
:10088000B6010E94BD0442E00E94F1018EE191E0B8
:100890000E94A00120E030E040EA50E4C501B4012C
:1008A0000E94860642E00E94F10180E291E00E94EF
:1008B000A0010E947B014B015C0184E6C82ED12C73
:1008C000E12CF12C0E947B01681979098A099B09A6
:1008D000683E734081059105A8F321E0C21AD10852
:1008E000E108F10888EE880E83E0981EA11CB11C77
:1008F000C114D104E104F10429F72596C83681E03A
:10090000D80709F068CF0115110509F462CF0E94DC
:10091000D800882309F45DCF0E9400005ACFEDE291
:10092000F1E01382128288EE93E0A0E0B0E08483CD
:100930009583A683B78384E091E09183808385ECDF
:1009400090E09587848784EC90E09787868780EC99
:1009500090E0918B808B81EC90E0938B828B82EC8A
:1009600090E0958B848B86EC90E0978B868B118E34
:10097000128E138E148E08955058BB27AA270E94FA
:10098000D4040C9447060E94390638F00E944006B1
:1009900020F039F49F3F19F426F40C9436060EF437
:1009A000E095E7FB0C943006E92F0E94580658F3B7
:1009B000BA17620773078407950720F079F4A6F544
:1009C0000C947A060EF4E0950B2EBA2FA02D0B0195
:1009D000B90190010C01CA01A0011124FF27591B84
:1009E00099F0593F50F4503E68F11A16F040A22F8A
:1009F000232F342F4427585FF3CF469537952795FB
:100A0000A795F0405395C9F77EF41F16BA0B620BF9
:100A1000730B840BBAF09150A1F0FF0FBB1F661F40
:100A2000771F881FC2F70EC0BA0F621F731F841F83
:100A300048F4879577956795B795F7959E3F08F0A9
:100A4000B0CF9395880F08F09927EE0F979587956B
:100A500008950E940C0608F481E008950E94420562
:100A60000C9447060E94400658F00E94390640F058
:100A700029F45F3F29F00C94300651110C947B0649
:100A80000C9436060E94580668F39923B1F3552357
:100A900091F3951B550BBB27AA2762177307840791
:100AA00038F09F5F5F4F220F331F441FAA1FA9F327
:100AB00035D00E2E3AF0E0E832D091505040E69515
:100AC000001CCAF72BD0FE2F29D0660F771F881F76
:100AD000BB1F261737074807AB07B0E809F0BB0B69
:100AE000802DBF01FF2793585F4F3AF09E3F51057D
:100AF00078F00C9430060C947B065F3FE4F3983E4C
:100B0000D4F3869577956795B795F7959F5FC9F765
:100B1000880F911D9695879597F90895E1E0660FE6
:100B2000771F881FBB1F621773078407BA0720F05F
:100B3000621B730B840BBA0BEE1F88F7E0950895C8
:100B40000E94600688F09F5798F0B92F9927B751F7
:100B5000B0F0E1F0660F771F881F991F1AF0BA9561
:100B6000C9F714C0B13091F00E947A06B1E008953F
:100B70000C947A06672F782F8827B85F39F0B93F31
:100B8000CCF3869577956795B395D9F73EF4909514
:100B90008095709561957F4F8F4F9F4F0895E89492
:100BA00009C097FB3EF490958095709561957F4FB5
:100BB0008F4F9F4F9923A9F0F92F96E9BB27939563
:100BC000F695879577956795B795F111F8CFFAF473
:100BD000BB0F11F460FF1BC06F5F7F4F8F4F9F4FA4
:100BE00016C0882311F096E911C0772321F09EE802
:100BF000872F762F05C0662371F096E8862F70E068
:100C000060E02AF09A95660F771F881FDAF7880F41
:100C10009695879597F90895990F0008550FAA0B97
:100C2000E0E8FEEF16161706E807F907C0F01216FF
:100C30001306E407F50798F0621B730B840B950B02
:100C400039F40A2661F0232B242B252B21F4089557
:100C50000A2609F4A140A6958FEF811D811D0895F4
:100C600097F99F6780E870E060E008959FEF80EC5F
:100C7000089500240A941616170618060906089502
:100C800000240A9412161306140605060895092E68
:100C90000394000C11F4882352F0BB0F40F4BF2BD7
:100CA00011F460FF04C06F5F7F4F8F4F9F4F089517
:100CB00057FD9058440F551F59F05F3F71F047950D
:100CC000880F97FB991F61F09F3F79F087950895F2
:100CD000121613061406551FF2CF4695F1DF08C011
:100CE000161617061806991FF1CF8695710561052E
:100CF00008940895E894BB2766277727CB0197F9D6
:100D000008950E940C0608F48FEF08950E9499063A
:100D10000C9447060E94390638F00E94400620F0E5
:100D2000952311F00C9430060C94360611240C9483
:100D30007B060E94580670F3959FC1F3950F50E013
:100D4000551F629FF001729FBB27F00DB11D639F7D
:100D5000AA27F00DB11DAA1F649F6627B00DA11D23
:100D6000661F829F2227B00DA11D621F739FB00DC9
:100D7000A11D621F839FA00D611D221F749F332739
:100D8000A00D611D231F849F600D211D822F762FD2
:100D90006A2F11249F5750409AF0F1F088234AF0AF
:100DA000EE0FFF1FBB1F661F771F881F915050401B
:100DB000A9F79E3F510580F00C9430060C947B06F9
:100DC0005F3FE4F3983ED4F3869577956795B795A2
:100DD000F795E7959F5FC1F7FE2B880F911D9695BC
:100DE000879597F908959F930E9402070F9007FC3B
:100DF000EE5F0C942B070E940C06880B990B08954C
:100E00000C9436060E946006D8F3E894E0E0BB2715
:100E10009F57F0F02AED3FE049EC06C0EE0FBB0F04
:100E2000661F771F881F28F0B23A6207730784078E
:100E300028F0B25A620B730B840BE3959A9572F704
:100E4000803830F49A95BB0F661F771F881FD2F742
:100E500090480C944107EF93E0FF07C0A2EA2AED07
:100E60003FE049EC5FEB0E94D4040E9447060F90DC
:100E7000039401FC9058E8E6F0E00C944D079F3F86
:100E800031F0915020F4879577956795B795880F45
:100E9000911D9695879597F908959F938F937F93CA
:100EA0006F93FF93EF939B01AC010E948606EF9135
:100EB000FF910E9461072F913F914F915F910C9498
:100EC0008606DF93CF931F930F93FF92EF92DF92EB
:100ED0007B018C01689406C0DA2EEF010E9499060E
:100EE000FE01E894A5912591359145915591A6F380
:100EF000EF010E94D404FE019701A801DA9469F77A
:100F0000DF90EF90FF900F911F91CF91DF910895A7
:100F1000A1E21A2EAA1BBB1BFD010DC0AA1FBB1FFD
:100F2000EE1FFF1FA217B307E407F50720F0A21B6F
:100F3000B30BE40BF50B661F771F881F991F1A94DC
:100F400069F760957095809590959B01AC01BD0106
:100F5000CF010895EE0FFF1F0590F491E02D099445
:040F6000F894FFCF33
:100F6400000000000E016E009B005B01CC00AA0093
:100F7400BE006E616E00696E66006F7666000900E1
:040F84000D0A000052
:00000001FF
