:100000000C945D000C9485000C9485000C94850084
:100010000C9485000C9485000C9485000C9485004C
:100020000C9485000C9485000C9485000C9485003C
:100030000C9485000C9485000C9485000C9485002C
:100040000C94CD030C9485000C949B030C947503C5
:100050000C9485000C9485000C9485000C9485000C
:100060000C9485000C94850000000008000201003B
:100070000003040700000000000000000000000072
:10008000250028002B0000000000240027002A0083
:10009000040404040404040402020202020203032E
:1000A0000303030301020408102040800102040836
:1000B0001020010204081020170411241FBECFEFE6
:1000C000D8E0DEBFCDBF22E0A0E5B1E001C01D92C7
:1000D000A034B207E1F711E0A0E0B1E0E4E6FEE011
:1000E00002C005900D92A035B107D9F710E0CDE51B
:1000F000D0E004C02197FE010E942A07CC35D10729
:10010000C9F70E9456040C9430070C940000AF927B
:10011000BF92CF92DF92EF92FF920F931F93CF93F4
:10012000DF936C017B018B01040F151FEB015E0156
:10013000AE18BF08C017D10759F06991D601ED91EB
:10014000FC910190F081E02DC6010995892B79F78A
:10015000C501DF91CF911F910F91FF90EF90DF903C
:10016000CF90BF90AF900895FC01538D448D252F03
:1001700030E0842F90E0821B930B541710F0CF9641
:10018000089501970895FC01918D828D981761F073
:10019000A28DAE0FBF2FB11D5D968C91928D9F5F8A
:1001A0009F73928F90E008958FEF9FEF0895FC0169
:1001B000918D828D981731F0828DE80FF11D858D1C
:1001C00090E008958FEF9FEF0895FC01918D228DAF
:1001D000892F90E0805C9F4F821B91098F73992734
:1001E00008958DE591E00E94E50021E0892B09F456
:1001F00020E0822F089580E090E0892B29F00E9472
:10020000F10081110C9400000895FC01A48DA80F49
:10021000B92FB11DA35ABF4F2C91848D90E0019648
:100220008F739927848FA689B7892C93A089B18968
:100230008C91837080648C93938D848D981306C009
:100240000288F389E02D80818F7D80830895EF926D
:10025000FF920F931F93CF93DF93EC0181E0888F80
:100260009B8D8C8D98131AC0E889F989808185FF50
:1002700015C09FB7F894EE89FF896083E889F989F2
:1002800080818370806480839FBF81E090E0DF91F4
:10029000CF911F910F91FF90EF900895F62E0B8D47
:1002A00010E00F5F1F4F0F731127E02E8C8D8E1102
:1002B0000CC00FB607FCFACFE889F989808185FF69
:1002C000F5CFCE010E940501F1CFEB8DEC0FFD2F94
:1002D000F11DE35AFF4FF0829FB7F8940B8FEA8924
:1002E000FB8980818062CFCFCF93DF93EC01888D33
:1002F0008823B9F0AA89BB89E889F9898C9185FDA1
:1003000003C0808186FD0DC00FB607FCF7CF8C912E
:1003100085FFF2CF808185FFEDCFCE010E940501E0
:10032000E9CFDF91CF91089590E0FC01E859FF4FAC
:100330002491FC01EC55FF4F3491FC01E057FF4F35
:10034000E491EE23C9F0222339F0233001F1A8F41F
:10035000213019F1223029F1F0E0EE0FFF1FE458AF
:10036000FF4FA591B4918FB7F894EC91611126C01D
:1003700030953E233C938FBF08952730A9F0283055
:10038000C9F0243049F7809180008F7D03C08091AF
:1003900080008F7780938000DFCF84B58F7784BD16
:1003A000DBCF84B58F7DFBCF8091B0008F778093BA
:1003B000B000D2CF8091B0008F7DF9CF3E2BDACF45
:1003C0003FB7F8948091550190915601A091570143
:1003D000B091580126B5A89B05C02F3F19F0019692
:1003E000A11DB11D3FBFBA2FA92F982F8827BC018F
:1003F000CD01620F711D811D911D42E0660F771FB7
:10040000881F991F4A95D1F708958F929F92AF92B6
:10041000BF92CF92DF92EF92FF920E94E0014B01D8
:100420005C0188EEC82E83E0D82EE12CF12C0E94CE
:10043000E001681979098A099B09683E73408105C2
:100440009105A8F321E0C21AD108E108F10888EE6D
:10045000880E83E0981EA11CB11CC114D104E104D4
:10046000F10429F7FF90EF90DF90CF90BF90AF900D
:100470009F908F9008952FB7F894609151017091DB
:10048000520180915301909154012FBF08958F9292
:100490009F92AF92BF92CF92DF92EF92FF926B0149
:1004A0007C010E943B024B015C01C80CD91CEA1C78
:1004B000FB1C0E943B02681579058A059B0528F004
:1004C000C616D706E806F906A0F7FF90EF90DF9072
:1004D000CF90BF90AF909F908F900895EF92FF9232
:1004E0000F931F93CF93DF9300D000D0CDB7DEB72B
:1004F0008DE591E00E94C3008DE591E00E94C3006C
:100500008E010F5F1F4F78018A3341F0F80181930C
:100510008F018DE591E00E94C300F6CFC7010E94D4
:10052000E206182F8DE591E00E94C3008053990BDD
:100530008230910520F4682F812F0E9494018DE56F
:1005400091E00E94C3008A3011F08D30C1F78DE533
:1005500091E00E94D7008A3021F48DE591E00E945D
:10056000C3000F900F900F900F90DF91CF911F91CC
:100570000F91FF90EF9008958DE591E00E94D700D4
:10058000843611F40E946E020E943B0260930002C6
:100590007093010280930202909303020895FC017C
:1005A00001900020E9F73197AF01481B590BBC01BE
:1005B0008DE591E00C9487008F929F92AF92BF924D
:1005C0000F931F93CF93DF93CDB7DEB7A1970FB6ED
:1005D000F894DEBF0FBECDBF19A2423008F44AE046
:1005E0008E010F5D1F4F842E912CB12CA12CA501E3
:1005F00094010E940807E62FB901CA01EA30F4F419
:10060000E05DD801EE938D01232B242B252B79F768
:1006100090E080E0109719F0CD010E94CF02A196E2
:100620000FB6F894DEBF0FBECDBFDF91CF911F9103
:100630000F91BF90AF909F908F900895E95CE1CFAC
:1006400082E191E00E94CF0289E191E00C94CF0217
:10065000CF92DF92EF92FF92CF93DF93C82F0E9449
:100660003B026B017C018CE191E00E94CF026C2F78
:1006700070E090E080E04AE00E94DC0283E291E0DA
:100680000E94CF024AE0C701B6010E94DC0285E267
:1006900091E00E94CF02CAEFD1E08E819F81A885B0
:1006A000B985A7019601281B390B4A0B5B0BCA01C0
:1006B000B9014AE00E94DC0285E291E00E94CF028B
:1006C0006E817F8188859985CA84DB84EC84FD8472
:1006D0006C197D098E099F094AE0DF91CF91FF9047
:1006E000EF90DF90CF900C94DC021F920F920FB628
:1006F0000F9211242F933F934F935F936F937F93A8
:100700008F939F93AF93BF93EF93FF938DE591E00A
:100710000E940501FF91EF91BF91AF919F918F9141
:100720007F916F915F914F913F912F910F900FBEED
:100730000F901F9018951F920F920FB60F921124D1
:100740002F938F939F93EF93FF93E0916D01F0911F
:100750006E018081E0917301F091740182FD1BC0F4
:100760009081809176018F5F8F732091770182173E
:1007700041F0E0917601F0E0E35AFE4F958F8093CF
:100780007601FF91EF919F918F912F910F900FBE66
:100790000F901F9018958081F4CF1F920F920FB683
:1007A0000F9211242F933F938F939F93AF93BF93F7
:1007B0008091510190915201A0915301B091540147
:1007C0003091500123E0230F2D3758F50196A11DDC
:1007D000B11D209350018093510190935201A09339
:1007E0005301B09354018091550190915601A0910D
:1007F0005701B09158010196A11DB11D809355017B
:1008000090935601A0935701B0935801BF91AF91B7
:100810009F918F913F912F910F900FBE0F901F903E
:10082000189526E8230F0296A11DB11DD2CFEDE544
:10083000F1E01382128288EE93E0A0E0B0E08483BE
:100840009583A683B78384E091E09183808385ECD0
:1008500090E09587848784EC90E09787868780EC8A
:1008600090E0918B808B81EC90E0938B828B82EC7B
:1008700090E0958B848B86EC90E0978B868B118E25
:10088000128E138E148EEAEFF1E016821782108614
:100890001186128613861486158616861786108A88
:1008A000118A128A138A148A158A0895789484B555
:1008B000826084BD84B5816084BD85B5826085BD5C
:1008C00085B5816085BD80916E00816080936E00EA
:1008D00010928100809181008260809381008091DC
:1008E000810081608093810080918000816080938D
:1008F00080008091B10084608093B1008091B0004D
:1009000081608093B00080917A00846080937A0047
:1009100080917A00826080937A0080917A00816071
:1009200080937A0080917A00806880937A00109298
:10093000C10010923C0210923D0210923E021092B1
:100940003F021092FC011092FD011092FE011092E4
:10095000FF0168EB7BE080E090E00E9447020E948C
:100960000502E0916D01F0916E0182E08083E091DB
:100970006901F0916A011082E0916B01F0916C01C4
:1009800080E1808310927501E0917101F091720114
:1009900086E08083E0916F01F09170018081806139
:1009A0008083E0916F01F091700180818860808385
:1009B000E0916F01F0917001808180688083E09107
:1009C0006F01F091700180818F7D80830E943B02D6
:1009D0006093FC017093FD018093FE019093FF01F1
:1009E00087E291E00E94CF026AE070E080E090E050
:1009F0000E94470281E0809310020E943B026093B4
:100A0000FC017093FD018093FE019093FF0188E348
:100A100091E00E94CF02E1EBF0E02491EDE9F0E0FB
:100A20008491882399F090E0880F991FFC01EA5780
:100A3000FF4FA591B491FC01E458FF4F859194912B
:100A40008FB7F894EC91E22BEC938FBF84EF91E099
:100A5000A0E0B0E08093080290930902A0930A02FC
:100A6000B0930B0210920C0210920D0210920E0223
:100A700010920F028091000290910102A091020257
:100A8000B09103028093040290930502A0930602A2
:100A9000B09307020E943B02609300027093010230
:100AA00080930202909303028DE591E00E94D700AB
:100AB000843611F40E946E0265E070E080E090E000
:100AC0000E9447026AE070E080E090E00E944702E6
:100AD00085E68093110292E3C92ED12CE12CF12CF2
:100AE00080911102833609F4B3C0853609F057C0EE
:100AF00080910C0290910D02A0910E02B0910F0214
:100B00000196A11DB11D80930C0290930D02A0933C
:100B10000E02B0930F0240910802509109026091B9
:100B20000A0270910B02452B462B472B21F4892B8F
:100B30008A2B8B2BA1F50E943B020091FC011091A6
:100B4000FD012091FE013091FF01DC01CB01801BF2
:100B5000910BA20BB30B82339105A105B10550F4A3
:100B600046015701881A990AAA0ABB0AC501B401AD
:100B70000E9447020E943B026093FC017093FD01BA
:100B80008093FE019093FF0182E00E9428030E945F
:100B9000200364EF71E080E090E00E9447026AE089
:100BA00070E080E090E00E9447028091100288236C
:100BB00009F449C08DE591E00E94E50081110AC069
:100BC00085E6809311028CCF21373105E1F126377C
:100BD0003105B9F38DE591E00E94E500882381F3AA
:100BE0008DE591E00E94C3009C0133272836310532
:100BF00051F154F72835310541F12336310551F7CC
:100C00000E943B026093FC017093FD018093FE0102
:100C10009093FF018FE391E00E94CF024AE062E0EF
:100C200070E080E090E00E94DC0286E491E00E94A7
:100C3000CF0289E191E00E94CF0262E370E080E0A0
:100C400090E00E94470283E6BCCF10921002FBCFD7
:100C50000E94BC02C0E0D0E084EFC82EDD24D39413
:100C6000E12CF12C0E943B02672B682B692B09F4C5
:100C700081C00E943B020091590110915A012091BC
:100C80005B0130915C01601771078207930708F4DC
:100C900090C00091590110915A0120915B0130914F
:100CA0005C014B015C01801A910AA20AB30A95010A
:100CB00084010A3F11052105310508F463C06093E2
:100CC000590170935A0180935B0190935C01C0922B
:100CD0000802D0920902E0920A02F0920B021092EE
:100CE0000C0210920D0210920E0210920F028091CF
:100CF000000290910102A0910202B0910302809340
:100D0000040290930502A0930602B09307020E948A
:100D10003B02609300027093010280930202909361
:100D200003028DE591E00E94D700843611F40E9401
:100D30006E020E943B026093FC017093FD01809360
:100D4000FE019093FF0181E00E9428038DE491E071
:100D50000E94CF020E943B024AE00E94DC020E94F5
:100D6000200365E070E080E090E00E9447020E946E
:100D7000BC0208C00E943B026230710581059105EA
:100D800008F077CF61E08DE00E9494010E94050297
:100D900060E08DE00E9494010E940502209709F412
:100DA00061CF0E94F100882309F45CCF0E9400000B
:100DB00059CF6093590170935A0180935B019093CE
:100DC0005C0167CFFC0188279927E89421912032A4
:100DD000E9F3293010F02E30C8F32B3241F02D32D8
:100DE00039F4689404C00E940007820F911D21917C
:100DF00020532A30C0F31EF4909581959F4F08959B
:100E00007AE0979F902D879F802D910D1124089552
:100E1000A1E21A2EAA1BBB1BFD010DC0AA1FBB1FFE
:100E2000EE1FFF1FA217B307E407F50720F0A21B70
:100E3000B30BE40BF50B661F771F881F991F1A94DD
:100E400069F760957095809590959B01AC01BD0107
:100E5000CF010895EE0FFF1F0590F491E02D099446
:040E6000F894FFCF34
:100E64000000000027018700B4007401E500C300FE
:100E7400D7005F564D445045000D0A00564D44506E
:100E8400455F003A323A00564D4450565F317C314A
:100E94005F564D4450560A00564D4450525F00561A
:100EA4004D4450435F005F564D445043007C000066
:00000001FF
