:100000000C9435000C945D000C945D000C945D0024
:100010000C945D000C945D000C945D000C945D00EC
:100020000C945D000C945D000C945D000C945D00DC
:100030000C945D000C945D000C945D000C945D00CC
:100040000C9473020C945D000C9441020C941B02FE
:100050000C945D000C945D000C945D000C945D00AC
:100060000C945D000C945D00A90311241FBECFEF1A
:10007000D8E0DEBFCDBF11E0A0E0B1E0E0EDF9E0F7
:1000800002C005900D92A232B107D9F721E0A2E299
:10009000B1E001C01D92AE3CB207E1F710E0C5E34C
:1000A000D0E004C02197FE010E94DB04C433D107D5
:1000B000C9F70E94BD020C94E6040C940000CF9294
:1000C000DF92EF92FF920F931F93CF93DF936C0118
:1000D0007A018B01C0E0D0E0CE15DF0581F0D801B8
:1000E0006D918D01D601ED91FC910190F081E02D93
:1000F000C6010995892B11F02196EECF7E01C7012B
:10010000DF91CF911F910F91FF90EF90DF90CF90F3
:100110000895089580E090E00895FC01538D448D8A
:10012000252F30E0842F90E0821B930B541710F0A2
:10013000CF96089501970895FC01918D828D9817AF
:1001400061F0828DDF01A80FB11D5D968C91928DBB
:100150009F5F9F73928F90E008958FEF9FEF0895B8
:10016000FC01918D828D981731F0828DE80FF11D81
:10017000858D90E008958FEF9FEF0895FC01918D9C
:10018000228D892F90E0805C9F4F821B91098F7395
:100190009927089581E391E00E94BE0021E0892B18
:1001A00009F420E0822F0895FC01848DDF01A80F5F
:1001B000B11DA35ABF4F2C91848D90E001968F738F
:1001C0009927848FA689B7892C93A089B1898C91AE
:1001D000837080648C93938D848D981306C00288FD
:1001E000F389E02D80818F7D80830895EF92FF92C7
:1001F0000F931F93CF93DF93EC0181E0888F9B8D4A
:100200008C8D981305C0E889F989808185FD26C009
:10021000F62E0B8D10E00F5F1F4F0F731127E02E8E
:100220008C8DE8120CC00FB607FCFACFE889F9896B
:10023000808185FFF5CFCE010E94D400F1CF8B8D58
:10024000FE01E80FF11DE35AFF4FF0829FB7F894CB
:100250000B8FEA89FB89808180620AC09FB7F8947E
:10026000EE89FF896083E889F989808183708064E1
:1002700080839FBF81E090E0DF91CF911F910F912C
:10028000FF90EF900895CF93DF93EC01888D882342
:10029000C9F0EA89FB89808185FD05C0A889B989F3
:1002A0008C9186FD0FC00FB607FCF5CF808185FFCE
:1002B000F2CFA889B9898C9185FFEDCFCE010E943C
:1002C000D400E7CFDF91CF91089580E090E0892BB3
:1002D00029F00E94CA0081110C94000008953FB7D4
:1002E000F8948091270190912801A0912901B09163
:1002F0002A0126B5A89B05C02F3F19F00196A11D24
:10030000B11D3FBFBA2FA92F982F8827820F911DAB
:10031000A11DB11DBC01CD0142E0660F771F881FF2
:10032000991F4A95D1F70895009769F0FC01019053
:100330000020E9F73197AF01481B590BBC0181E35D
:1003400091E00C945F0080E090E008958F929F927E
:10035000AF92BF92CF92DF92EF92FF920F931F93D3
:10036000CF93DF93CDB7DEB7A1970FB6F894DEBF7A
:100370000FBECDBF6B017C0197FF2BC06DE281E307
:1003800091E00E94F6008C0122273327A9012C1945
:100390003D094E095F0919A2CE0181967C019AE0C0
:1003A000892E912CA12CB12CCA01B901A50194016F
:1003B0000E94AA04605DF70162937F012115310557
:1003C0004105510589F7CF010E949401800F911FCB
:1003D0001DC09B01AC0119A28E010F5D1F4F8AE069
:1003E000C82ED12CE12CF12CCA01B901A70196012C
:1003F0000E94AA04605DF80162938F012115310506
:100400004105510589F7CF010E949401A1960FB6CD
:10041000F894DEBF0FBECDBFDF91CF911F910F913A
:10042000FF90EF90DF90CF90BF90AF909F908F9014
:1004300008950E94E1041F920F920FB60F921124AB
:100440002F933F934F935F936F937F938F939F93DC
:10045000AF93BF93EF93FF9381E391E00E94D400A9
:10046000FF91EF91BF91AF919F918F917F916F918C
:100470005F914F913F912F910F900FBE0F901F9062
:1004800018951F920F920FB60F9211242F938F93EE
:100490009F93EF93FF93E0914101F091420180819E
:1004A000E0914701F091480182FD12C09081809156
:1004B0004A018F5F8F7320914B01821751F0E091B9
:1004C0004A01F0E0EF5CFE4F958F80934A0101C036
:1004D0008081FF91EF919F918F912F910F900FBE8F
:1004E0000F901F9018951F920F920FB60F92112424
:1004F0002F933F938F939F93AF93BF93809123014B
:1005000090912401A0912501B09126013091220102
:1005100023E0230F2D3720F40196A11DB11D05C046
:1005200026E8230F0296A11DB11D2093220180937E
:10053000230190932401A0932501B093260180917B
:10054000270190912801A0912901B0912A010196DB
:10055000A11DB11D8093270190932801A09329012B
:10056000B0932A01BF91AF919F918F913F912F91AD
:100570000F900FBE0F901F901895789484B58260ED
:1005800084BD84B5816084BD85B5826085BD85B537
:10059000816085BD80916E00816080936E001092B5
:1005A0008100809181008260809381008091810030
:1005B00081608093810080918000816080938000C1
:1005C0008091B10084608093B1008091B00081601F
:1005D0008093B00080917A00846080937A0080914B
:1005E0007A00826080937A0080917A0081608093A3
:1005F0007A0080917A00806880937A001092C1001E
:10060000E0914101F091420182E08083E0913D015F
:10061000F0913E011082E0913F01F09140018FEC9A
:10062000808310924901E0914501F091460186E0F6
:100630008083E0914301F091440180818061808357
:10064000E0914301F0914401808188608083E091D2
:100650004301F0914401808180688083E0914301EF
:10066000F091440180818F7D808394E6C92ED12C46
:10067000E12CF12C0E942104A70196010E9478042C
:100680007093300160932F010E942104A70196010D
:100690000E94780470932E0160932D0120912F0108
:1006A00030913001A901460F571F50932C01409300
:1006B0002B01B901330F880B990B0E94A60186E12B
:1006C00091E00E94940160912D0170912E01072EFE
:1006D000000C880B990B0E94A6018AE191E00E9410
:1006E000940160912B0170912C01072E000C880B56
:1006F000990B0E94A6018EE191E00E9494010E9454
:100700006F012B013C0188EE882E83E0982EA12CEE
:10071000B12C0E946F01DC01CB0184199509A60957
:10072000B709883E9340A105B10598F321E0821AEC
:100730009108A108B10888EE480E83E0581E611C9C
:10074000711C81149104A104B10419F70E94650180
:1007500091CFE1E3F1E01382128288EE93E0A0E012
:10076000B0E084839583A683B78388E091E091838A
:10077000808385EC90E09587848784EC90E0978770
:10078000868780EC90E0918B808B81EC90E0938B5E
:10079000828B82EC90E0958B848B86EC90E0978B3B
:1007A000868B118E128E138E148E08958F929F92C7
:1007B000AF92BF92CF92DF92EF92FF92CF93DF93EF
:1007C000EC01688179818A819B81611571058105C0
:1007D000910521F464E279ED8BE597E02DE133EFAB
:1007E00041E050E00E94780449015A019B01AC01AC
:1007F000A7EAB1E40E9497046B017C01ACEEB4EF70
:10080000A50194010E94A504DC01CB018C0D9D1D66
:10081000AE1DBF1DB7FF03C00197A109B048888373
:100820009983AA83BB83BC01CD019F77DF91CF91D0
:10083000FF90EF90DF90CF90BF90AF909F908F9000
:1008400008958F929F92AF92BF92CF92DF92EF92D4
:10085000FF926091000170910101809102019091DD
:100860000301611571058105910521F464E279EDBB
:100870008BE597E02DE133EF41E050E00E947804F2
:1008800049015A019B01AC01A7EAB1E40E94970417
:100890006B017C01ACEEB4EFA50194010E94A504AC
:1008A000DC01CB018C0D9D1DAE1DBF1DB7FF03C02C
:1008B0000197A109B0488093000190930101A09392
:1008C0000201B0930301BC01CD019F77FF90EF902F
:1008D000DF90CF90BF90AF909F908F9008956093DE
:1008E0000001709301018093020190930301089528
:1008F000052E97FB1EF400940E948F0457FD07D02D
:100900000E94AA0407FC03D04EF40C948F04509567
:100910004095309521953F4F4F4F5F4F08959095EB
:100920008095709561957F4F8F4F9F4F08950E94DE
:10093000CC04A59F900DB49F900DA49F800D911D98
:1009400011240895B7FF0C9497040E949704821B0A
:10095000930B0895A1E21A2EAA1BBB1BFD010DC02B
:10096000AA1FBB1FEE1FFF1FA217B307E407F5075F
:1009700020F0A21BB30BE40BF50B661F771F881F3B
:10098000991F1A9469F760957095809590959B01D1
:10099000AC01BD01CF010895A29FB001B39FC0017A
:1009A000A39F700D811D1124911DB29F700D811D9B
:1009B0001124911D0895EE0FFF1F0590F491E02D75
:1009C000099481E090E0F8940C94E604F894FFCF49
:1009D0000100000000000000F6005F008D004301F0
:1009E000BE009C00B000202B2000203D20000D0AFE
:0209F000000005
:107E0000112484B714BE81FFFDD085E080938100EA
:107E100082E08093C00088E18093C10096E0909357
:107E2000C20090E19093C400809360008EE0809344
:107E30006000259A86E020E33CEF91E030938500D6
:107E40002093840096BBB09BFECF1D9AA8958150CD
:107E5000A9F7C0E0D0E008E138E0F32EEE24E39487
:107E600045E0B42E51E1A52E13E0A7D0813491F462
:107E7000A4D0D82EAED082E8D81203C084E096D029
:107E800092C0E1E8DE1203C084E090D08CC083E0B1
:107E90008DD089C0823419F484E1A7D084C08534A0
:107EA00019F485E0A2D07FC0853549F486D0C82F6B
:107EB00084D0D0E0D82BCC0FDD1F8BD074C086359A
:107EC00029F484E092D080E071D06DC0843609F04E
:107ED0003FC073D072D0982E70D0C115F0E7DF0785
:107EE00038F4FE0117BFE895C12CDD24D39403C0FC
:107EF000C12CDD24D39461D0F60181936F019E12D1
:107F0000FACFC115F0E7DF0718F0FE0117BFE895BB
:107F100060D007B600FCFDCFFE01A0E0B1E08C917F
:107F200011962C91119790E0922B0C01E7BEE895E9
:107F3000112432961296A03881E0B80781F7FE012D
:107F4000B7BEE89507B600FCFDCFA7BEE8952BC0ED
:107F50008437B1F432D031D0982E2FD03AD0892C3A
:107F6000FE016F018FEFC81AD80A84911FD08A943E
:107F7000F6018110F6CF21969A94C90DD11D13C038
:107F8000853741F426D08EE111D085E90FD08FE0FE
:107F90000DD009C0813531F400936000F09260008B
:107FA00018D001C016D080E101D05FCF9091C00001
:107FB00095FFFCCF8093C60008958091C00087FF95
:107FC000FCCF8091C00084FD01C0A8958091C600BF
:107FD0000895F3DF803239F088E18093600088E013
:107FE00080936000FFCF84E1E1CFCF93C82FE5DF1E
:107FF000C150E9F7CF91EDCFE0E6F0E098E1908352
:1080000080830895E0E6F0E088E180831082EE2727
:04801000FF270994A9
:027FFE00040479
:0400000300007E007B
:00000001FF
