:020000020000FC
:1000000007E610E00E941B00E4E9F0E00E942D00EA
:100010000E943800ECEBF0E00E942D00E0E0F2E0FE
:100020000E943F00E2EBF0E00E942D00E0E0F2E0F1
:100030000E942D00FFCF0093C4001093C50008E17B
:100040000093C1000EE00093C20008951091C0001B
:1000500015FFFCCF0093C60008950591003039F0DC
:100060001091C00015FFFCCF0093C600F6CF089595
:100070001091C00017FFFCCF0091C60008951091A9
:10008000C00017FFFCCF0091C60001930A3009F0B1
:10009000F6CF089550726573732061206B657920E7
:1000A000746F20636F6E74696E75652E2E2E0A0D47
:1000B0000000627965206279652C200057686174C0
:1000C00020697320796F7572206E616D653F0A0D2E
:0200D00000002E
:00000001FF
