:020000020000FC
:1000000007E610E00E942500009101000E943000E8
:10001000FBCFE8EAF0E00E943700E0E0F2E00E9467
:1000200049000AE000930201009100010E943000A3
:10003000009102010E943000009101010E943000F5
:10004000009102010E943000DFCF0093C4001093A2
:10005000C50008E10093C1000EE00093C2000895BE
:100060001091C00015FFFCCF0093C60008950591C4
:10007000003039F01091C00015FFFCCF0093C6008E
:10008000F6CF08951091C00017FFFCCF0091C60075
:1000900008951091C00017FFFCCF0091C600019396
:1000A0000A3009F0F6CF089550726573732061200D
:1000B0006B657920746F20636F6E74696E75652E41
:1000C0002E2E0A0D0000627965206279652C2000D1
:1000D0005768617420697320796F7572206E616D45
:0600E000653F0A0D00005F
:00000001FF
