:100000000C9435000C945D000C945D000C945D0024
:100010000C945D000C945D000C945D000C945D00EC
:100020000C945D000C945D000C945D000C945D00DC
:100030000C945D000C945D000C945D000C945D00CC
:100040000C9441020C945D000C940F020C94E90195
:100050000C945D000C945D000C945D000C945D00AC
:100060000C945D000C945D002E0411241FBECFEF94
:10007000D8E0DEBFCDBF11E0A0E0B1E0EEEBFEE0E6
:1000800002C005900D92AC33B107D9F721E0ACE383
:10009000B1E001C01D92A83EB207E1F710E0C5E350
:1000A000D0E004C02197FE010E945207C433D1075B
:1000B000C9F70E948B020C945D070C940000CF924C
:1000C000DF92EF92FF920F931F93CF93DF936C0118
:1000D0007A018B01C0E0D0E0CE15DF0581F0D801B8
:1000E0006D918D01D601ED91FC910190F081E02D93
:1000F000C6010995892B11F02196EECF7E01C7012B
:10010000DF91CF911F910F91FF90EF90DF90CF90F3
:100110000895089580E090E00895FC01538D448D8A
:10012000252F30E0842F90E0821B930B541710F0A2
:10013000CF96089501970895FC01918D828D9817AF
:1001400061F0828DDF01A80FB11D5D968C91928DBB
:100150009F5F9F73928F90E008958FEF9FEF0895B8
:10016000FC01918D828D981731F0828DE80FF11D81
:10017000858D90E008958FEF9FEF0895FC01918D9C
:10018000228D892F90E0805C9F4F821B91098F7395
:10019000992708958BE491E00E94BE0021E0892B0D
:1001A00009F420E0822F0895FC01848DDF01A80F5F
:1001B000B11DA35ABF4F2C91848D90E001968F738F
:1001C0009927848FA689B7892C93A089B1898C91AE
:1001D000837080648C93938D848D981306C00288FD
:1001E000F389E02D80818F7D80830895EF92FF92C7
:1001F0000F931F93CF93DF93EC0181E0888F9B8D4A
:100200008C8D981305C0E889F989808185FD26C009
:10021000F62E0B8D10E00F5F1F4F0F731127E02E8E
:100220008C8DE8120CC00FB607FCFACFE889F9896B
:10023000808185FFF5CFCE010E94D400F1CF8B8D58
:10024000FE01E80FF11DE35AFF4FF0829FB7F894CB
:100250000B8FEA89FB89808180620AC09FB7F8947E
:10026000EE89FF896083E889F989808183708064E1
:1002700080839FBF81E090E0DF91CF911F910F912C
:10028000FF90EF900895CF93DF93EC01888D882342
:10029000C9F0EA89FB89808185FD05C0A889B989F3
:1002A0008C9186FD0FC00FB607FCF5CF808185FFCE
:1002B000F2CFA889B9898C9185FFEDCFCE010E943C
:1002C000D400E7CFDF91CF91089580E090E0892BB3
:1002D00029F00E94CA0081110C94000008953FB7D4
:1002E000F8948091410190914201A0914301B09115
:1002F000440126B5A89B05C02F3F19F00196A11D0A
:10030000B11D3FBFBA2FA92F982F8827820F911DAB
:10031000A11DB11DBC01CD0142E0660F771F881FF2
:10032000991F4A95D1F70895009769F0FC01019053
:100330000020E9F73197AF01481B590BBC018BE452
:1003400091E00C945F0080E090E008958F929F927E
:10035000AF92BF920F931F93CF93DF93CDB7DEB7CA
:10036000A1970FB6F894DEBF0FBECDBF19A24230E1
:1003700008F44AE08E010F5D1F4F842E912CA12CB2
:10038000B12CA50194010E942F05E62FB901CA01E5
:1003900001501109EA3014F4E05D01C0E95CD801B4
:1003A000EC93232B242B252B61F7C8010E94940189
:1003B000A1960FB6F894DEBF0FBECDBFDF91CF91EF
:1003C0001F910F91BF90AF909F908F9008950E94C2
:1003D00058071F920F920FB60F9211242F933F933D
:1003E0004F935F936F937F938F939F93AF93BF933D
:1003F000EF93FF938BE491E00E94D400FF91EF9183
:10040000BF91AF919F918F917F916F915F914F912C
:100410003F912F910F900FBE0F901F9018951F9234
:100420000F920FB60F9211242F938F939F93EF93F8
:10043000FF93E0915B01F0915C018081E0916101AB
:10044000F091620182FD12C09081809164018F5F02
:100450008F7320916501821751F0E0916401F0E003
:10046000E55BFE4F958F8093640101C08081FF9111
:10047000EF919F918F912F910F900FBE0F901F9032
:1004800018951F920F920FB60F9211242F933F933E
:100490008F939F93AF93BF9380913D0190913E01C5
:1004A000A0913F01B091400130913C0123E0230F26
:1004B0002D3720F40196A11DB11D05C026E8230F9C
:1004C0000296A11DB11D20933C0180933D019093A4
:1004D0003E01A0933F01B093400180914101909172
:1004E0004201A0914301B09144010196A11DB11DAB
:1004F0008093410190934201A0934301B093440142
:10050000BF91AF919F918F913F912F910F900FBE0F
:100510000F901F901895789484B5826084BD84B53F
:10052000816084BD85B5826085BD85B5816085BDEE
:1005300080916E00816080936E00109281008091A6
:10054000810082608093810080918100816080932E
:100550008100809180008160809380008091B10053
:1005600084608093B1008091B00081608093B0007E
:1005700080917A00846080937A0080917A00826012
:1005800080937A0080917A00816080937A008091D4
:100590007A00806880937A001092C100E0915B013C
:1005A000F0915C0182E08083E0915701F091580165
:1005B0001082E0915901F0915A018FEC80831092E2
:1005C0006301E0915F01F091600186E08083E0913A
:1005D0005D01F0915E01808180618083E0915D0129
:1005E000F0915E01808188608083E0915D01F091EF
:1005F0005E01808180688083E0915D01F0915E0101
:1006000080818F7D808394E6892E912CA12CB12C42
:10061000C4E6D0E010924A011092490104E610E0CD
:100620000E94A604A50194010E94FD0420914901A5
:1006300030914A01C901860F971F90934A01809318
:1006400049010150110961F7BE010E942A07072ED6
:10065000000C880B990B0E94030660934501709370
:100660004601809347019093480186E191E00E9402
:100670009401C0904901D0904A010D2C000CEE0865
:10068000FF08F7FE0EC06DE28BE491E00E94F600D9
:1006900066277727CB016C197D098E099F094AE0EF
:1006A00003C04AE0C701B6010E94A6018FE191E0B4
:1006B0000E949401C0904501D0904601E09047010E
:1006C000F0904801A7019601C701B6010E942507D5
:1006D000882319F08DE291E01AC026013701E894D1
:1006E00077F82FEF3FEF4FE75FE7C301B2010E94BA
:1006F000250781110FC02FEF3FEF4FE75FE7C301E1
:10070000B2010E94CD0518162CF481E391E00E94FD
:10071000940176C02FEF3FEF4FE75FE4C701B601CA
:100720000E94B30618161CF485E391E0F0CF2FEF7A
:100730003FEF4FE75FECC701B6010E94CD0587FD93
:10074000F3CF20E030E0A901C701B6010E94CD053A
:1007500087FF09C06DE28BE491E00E94F600F7FA92
:10076000F094F7F8F0942AE037ED43EA5BE3C70131
:10077000B6010E9461052B013C010E94D2056B016C
:100780007C010E9401069B01AC01C301B2010E94E1
:1007900060052B013C014AE0C701B6010E94A60199
:1007A0006EE28BE491E00E94F60020E030E040E24F
:1007B00051E4C301B2010E94B8062B013C010E9422
:1007C000D2056B01E12CF12C4AE0C701B6010E9471
:1007D000A601C701B6010E9401069B01AC01C3013D
:1007E000B2010E94600520E030E040E251E40E9446
:1007F000B8060E94D20580E090E04AE00E94A6017F
:1008000089E391E00E9494010E946F012B013C0159
:1008100088EEC82E83E0D82EE12CF12C0E946F01C7
:10082000DC01CB0184199509A609B709883E9340DC
:10083000A105B10598F321E0C21AD108E108F10839
:1008400088EE480E83E0581E611C711CC114D1044F
:10085000E104F10419F70E946501DCCEEBE4F1E05C
:100860001382128288EE93E0A0E0B0E08483958347
:10087000A683B78388E091E09183808385EC90E044
:100880009587848784EC90E09787868780EC90E05A
:10089000918B808B81EC90E0938B828B82EC90E04B
:1008A000958B848B86EC90E0978B868B118E128EC5
:1008B000138E148E08958F929F92AF92BF92CF9213
:1008C000DF92EF92FF92CF93DF93EC016881798101
:1008D0008A819B81611571058105910521F464E28E
:1008E00079ED8BE597E02DE133EF41E050E00E9498
:1008F000FD0449015A019B01AC01A7EAB1E40E9441
:100900001C056B017C01ACEEB4EFA50194010E94C3
:100910002A05DC01CB018C0D9D1DAE1DBF1DB7FF4F
:1009200003C00197A109B04888839983AA83BB8338
:10093000BC01CD019F77DF91CF91FF90EF90DF90C9
:10094000CF90BF90AF909F908F9008958F929F927D
:10095000AF92BF92CF92DF92EF92FF92609100012F
:10096000709101018091020190910301611571055F
:100970008105910521F464E279ED8BE597E02DE1A5
:1009800033EF41E050E00E94FD0449015A019B0110
:10099000AC01A7EAB1E40E941C056B017C01ACEE3E
:1009A000B4EFA50194010E942A05DC01CB018C0D56
:1009B0009D1DAE1DBF1DB7FF03C00197A109B04823
:1009C0008093000190930101A0930201B093030171
:1009D000BC01CD019F77FF90EF90DF90CF90BF904B
:1009E000AF909F908F9008956093000170930101E4
:1009F00080930201909303010895052E97FB1EF446
:100A000000940E94140557FD07D00E942F0507FC93
:100A100003D04EF40C9414055095409530952195D3
:100A20003F4F4F4F5F4F089590958095709561951A
:100A30007F4F8F4F9F4F08950E945105A59F900DA6
:100A4000B49F900DA49F800D911D11240895B7FFB0
:100A50000C941C050E941C05821B930B0895A1E2B7
:100A60001A2EAA1BBB1BFD010DC0AA1FBB1FEE1F28
:100A7000FF1FA217B307E407F50720F0A21BB30B73
:100A8000E40BF50B661F771F881F991F1A9469F7EF
:100A900060957095809590959B01AC01BD01CF014B
:100AA0000895A29FB001B39FC001A39F700D811D47
:100AB0001124911DB29F700D811D1124911D089567
:100AC0005058BB27AA270E9478050C9479060E94EB
:100AD0006B0638F00E94720620F039F49F3F19F43B
:100AE00026F40C9468060EF4E095E7FB0C9462067D
:100AF000E92F0E948A0658F3BA1762077307840722
:100B0000950720F079F4A6F50C94AC060EF4E09568
:100B10000B2EBA2FA02D0B01B90190010C01CA01B7
:100B2000A0011124FF27591B99F0593F50F4503E62
:100B300068F11A16F040A22F232F342F4427585F54
:100B4000F3CF469537952795A795F0405395C9F76C
:100B50007EF41F16BA0B620B730B840BBAF0915024
:100B6000A1F0FF0FBB1F661F771F881FC2F70EC0C3
:100B7000BA0F621F731F841F48F487957795679596
:100B8000B795F7959E3F08F0B0CF9395880F08F082
:100B90009927EE0F9795879508950E943E0608F4D1
:100BA00081E008950E94920688F09F5798F0B92F2F
:100BB0009927B751B0F0E1F0660F771F881F991F92
:100BC0001AF0BA95C9F714C0B13091F00E94AC0682
:100BD000B1E008950C94AC06672F782F8827B85F92
:100BE00039F0B93FCCF3869577956795B395D9F7EA
:100BF0003EF490958095709561957F4F8F4F9F4FF4
:100C00000895E89409C097FB3EF4909580957095FF
:100C100061957F4F8F4F9F4F9923A9F0F92F96E948
:100C2000BB279395F695879577956795B795F111BD
:100C3000F8CFFAF4BB0F11F460FF1BC06F5F7F4F5A
:100C40008F4F9F4F16C0882311F096E911C077236C
:100C500021F09EE8872F762F05C0662371F096E875
:100C6000862F70E060E02AF09A95660F771F881F44
:100C7000DAF7880F9695879597F90895990F0008E8
:100C8000550FAA0BE0E8FEEF16161706E807F9075E
:100C9000C0F012161306E407F50798F0621B730BF9
:100CA000840B950B39F40A2661F0232B242B252B7A
:100CB00021F408950A2609F4A140A6958FEF811D1D
:100CC000811D089597F99F6780E870E060E00895BE
:100CD0009FEF80EC089500240A9416161706180654
:100CE0000906089500240A94121613061406050630
:100CF0000895092E0394000C11F4882352F0BB0FC1
:100D000040F4BF2B11F460FF04C06F5F7F4F8F4F23
:100D10009F4F089557FD9058440F551F59F05F3F5E
:100D200071F04795880F97FB991F61F09F3F79F00D
:100D300087950895121613061406551FF2CF46958F
:100D4000F1DF08C0161617061806991FF1CF869511
:100D50007105610508940895E894BB2766277727F5
:100D6000CB0197F908950E943E0608F48FEF08958D
:100D70000E94CB060C9479060E946B0638F00E9404
:100D8000720620F0952311F00C9462060C9468060C
:100D900011240C94AD060E948A0670F3959FC1F34E
:100DA000950F50E0551F629FF001729FBB27F00D19
:100DB000B11D639FAA27F00DB11DAA1F649F66276E
:100DC000B00DA11D661F829F2227B00DA11D621FBD
:100DD000739FB00DA11D621F839FA00D611D221F77
:100DE000749F3327A00D611D231F849F600D211D5B
:100DF000822F762F6A2F11249F5750409AF0F1F0DE
:100E000088234AF0EE0FFF1FBB1F661F771F881F46
:100E100091505040A9F79E3F510580F00C94620616
:100E20000C94AD065F3FE4F3983ED4F38695779536
:100E30006795B795F795E7959F5FC1F7FE2B880FEC
:100E4000911D9695879597F908950E943E06880B07
:100E5000990B089597FB072E16F4009407D077FDA1
:100E600009D00E943E0707FC05D03EF4909581957D
:100E70009F4F0895709561957F4F0895AA1BBB1BE6
:100E800051E107C0AA1FBB1FA617B70710F0A61B8A
:100E9000B70B881F991F5A95A9F780959095BC01AB
:100EA000CD010895EE0FFF1F0590F491E02D0994F8
:0E0EB00081E090E0F8940C945D07F894FFCF79
:100EBE000100000000000000F6005F008D004301FD
:100ECE00BE009C00B000202053756D203D200020F8
:100EDE002C2041766572616765203D20006E616E43
:0C0EEE0000696E66006F7666000D0A0059
:00000001FF
