:020000020000FC
:1000000007E610E00E941500E4E6F0E00E942700F9
:1000100006E30E94200007E30E9420000AE00E94FD
:100020002000E2E7F0E013D0FCCF0093C40010936F
:10003000C50008E10093C1000EE00093C2000895DE
:100040001091C00015FFFCCF0093C60008950591E4
:10005000003039F01091C00015FFFCCF0093C600AE
:10006000F6CF089548656C6C6F20776F726C642EC4
:100070000A003130302032303020333030203430FC
:0800800030203530300A000089
:00000001FF
